:100000000C9434000C943E000C943E000C943E0082
:100010000C943E000C943E000C943E000C943E0068
:100020000C943E000C943E000C943E000C943E0058
:100030000C943E000C943E000C943E000C943E0048
:100040000C943E000C943E000C943E000C943E0038
:100050000C943E000C943E000C943E000C943E0028
:100060000C943E000C943E0011241FBECFEFD4E050
:10007000DEBFCDBF0E944B000C9461000C940000C9
:1000800007C006B407FEFDCF019726B52138E8F773
:100090000097B9F708958FEF84B914BC82E085BD4D
:1000A000C3E0D0E01FEF15B980E991E00E94400065
:1000B00015B880E991E00E9440002197A1F715B89A
:0600C000FECFF894FFCF13
:00000001FF
